:020000040000FA
:060000000A128A11B22F62
:100EA800033400343A3400343B3400343A340034E8
:100EB8000334003401340034023400340434003480
:100EC80008340034103400347E088A007F08820019
:100ED8000A128A1168270A128A118000840A0408F3
:100EE8007D0603190034FF0A0319FE0A6C2F8316C6
:100EF800031386018701FC01FD017C08FA007A07CB
:100F0800703E840000088312031387007C08FA00EF
:100F18007A07203E84008313000886000D30FB000A
:100F2800FB30FA00FA0B962FFB0B962F9B2F013004
:100F3800FC070318FD0A0030FD077D08803AFF0012
:100F480080307F02031DAA2F05307C02031CAD2FC1
:100F5800AE2F812F7F2F0A128A11002883132A307F
:100F6800FD000730FE005430FF00203084000A12D4
:100F78008A116C270A128A110A128A115E270A122C
:100F88008A11F0000A128A115F270A128A11F100E9
:100F98000A128A1160270A128A11F2000A128A11AB
:100FA80061270A128A11F3000A128A1162270A12AB
:100FB8008A11F4000A128A1163270A128A11F500AD
:100FC8000A128A1164270A128A11F6000A128A1173
:100FD80065270A128A11F7000A128A1166270A126F
:100FE8008A11F8000A128A1167270A128A11F90071
:080FF80083010A128A117B2F0C
:02400E00FB3F76
:00000001FF
